:100000000C9418040C9449040C9449040C9449046D
:100010000C9449040C9449040C9449040C9449042C
:100020000C9449040C9449040C9449040C9449041C
:100030000C9449040C9449040C9449040C9449040C
:100040000C9449040C9449040C9449040C944904FC
:100050000C9449040C9449040C9449040C94E50F45
:100060000C9449040C9400140C94CC140C94490482
:100070000C9449040C9449040C9449040C944904CC
:100080000C9449040C9449040C9449040C944904BC
:100090000C9433140C940B150C9449040C944904DF
:1000A0000C9449040C9449040C9449040C9449049C
:1000B0000C9449040C9449040C9449040C9449048C
:1000C0000C9449040C9449040C9449040C9466144F
:1000D0000C944A150C9449040C9499140C948915A9
:1000E0000C944904241127111A111E115E112B11B1
:1000F0002F11351139113D11431147114B115E116B
:100100005111551159110C9451110C940F190C9453
:10011000D1290C94692F0C94D02B0C941C2E0C9488
:10012000DD2F0C94202F0C94A32F0C9439110C94D8
:10013000FA2A0C942B110C948A080C9425190C940F
:1001400050160C94A4130C944C130C944B110C9457
:100150005E110C94012A0C9459110C9424110C94E6
:10016000012F0C94F8180C9443110C943D110C942D
:100170001E110C941A110C94D2290C948B2A0C94F5
:100180000C2F0C941B300C94F1290C9460190C94D6
:10019000702B0C94332F0C94EB320C9479130C9439
:1001A00027110C94F4110C9499130C9428290C9495
:1001B00041190C94E5290C9476210C94DF340C94AD
:1001C000472A0C94101A0C94CF2B0C9447110C94C2
:1001D0006A190C9455110C94D9290C9464340C941C
:1001E000022A0C944D130C9437330C945D130C9429
:1001F000DC2A0C9435110C942F110000090A020816
:100200000B0C0D07060304010000000000000000B5
:1002100000000000000000000000000000000000DE
:1002200000000000000011100F000000000000009E
:1002300000000000000000000000000000000000BE
:1002400001021020200808102040102040800201E8
:1002500002010804020101020408102040808040CD
:1002600020100804020180040201804020100804CC
:10027000020108040201010204081020408001026A
:100280000408102040800505050507050808080832
:10029000020202020A0A080804040404010101011E
:1002A0000101010103030303030303030407070719
:1002B0000C0C0C0C0C0C0C0C0202020206060606BE
:1002C000060606060B0B0B0B0B0B0B0B000020009E
:1002D0002300260029002C002F003200000100001E
:1002E00003010601090100002200250028002B005F
:1002F0002E003100340002010000050108010B014D
:1003000000002100240027002A002D0030003300C7
:1003100001010000040107010A017C3C3E5E2B3D07
:100320003F2F5B5D3B2C2A225C0000000000003E5A
:100330005B4F5B3E3E6B4F6B3E1C3E7C3E1C183C55
:100340007E3C181C577D571C1C5E7F5E1C00183CB1
:100350001800FFE7C3E7FF0018241800FFE7DBE7FA
:10036000FF30483A060E2629792926407F050507E1
:10037000407F05253F5A3CE73C5A7F3E1C1C08083D
:100380001C1C3E7F14227F22145F5F005F5F060902
:100390007F017F006689956A606060606094A2FF5B
:1003A000A29408047E040810207E201008082A1C4D
:1003B00008081C2A08081E101010100C1E0C1E0C19
:1003C00030383E3830060E3E0E06000000000000B9
:1003D000005F00000007000700147F147F14242A28
:1003E0007F2A1223130864623649562050000807FA
:1003F0000300001C2241000041221C002A1C7F1C1B
:100400002A08083E0808008070300008080808081C
:10041000000060600020100804023E5149453E0083
:10042000427F400072494949462141494D331814E1
:10043000127F1027454545393C4A49493141211130
:1004400009073649494936464949291E0000140022
:100450000000403400000008142241141414141445
:10046000004122140802015909063E415D594E7CA3
:100470001211127C7F494949363E414141227F4158
:1004800041413E7F494949417F090909013E4141B6
:1004900051737F0808087F00417F41002040413FA1
:1004A000017F081422417F404040407F021C027FB0
:1004B0007F0408107F3E4141413E7F090909063E05
:1004C0004151215E7F0919294626494949320301D4
:1004D0007F01033F4040403F1F2040201F3F4038E6
:1004E000403F631408146303047804036159494DC1
:1004F00043007F4141410204081020004141417FF7
:10050000040201020440404040400003070800206C
:10051000545478407F28444438384444442838446C
:1005200044287F385454541800087E090218A4A4A3
:100530009C787F0804047800447D40002040403DC2
:10054000007F1028440000417F40007C047804783C
:100550007C080404783844444438FC1824241818CF
:10056000242418FC7C08040408485454542404042B
:100570003F44243C4040207C1C2040201C3C403018
:10058000403C44281028444C9090907C4464544C47
:1005900044000836410000007700000041360800A2
:1005A00002010204023C2623263C1EA1A161123A4C
:1005B0004040207A38545455592155557941225498
:1005C000547842215554784020545579400C1E529D
:1005D0007212395555555939545454593955545442
:1005E000580000457C410002457D420001457C40A9
:1005F0007D1211127DF0282528F07C5455450020ED
:1006000054547C547C0A097F4932494949323A445E
:1006100044443A324A4848303A4141217A3A4240C9
:100620002078009DA0A07D3D4242423D3D4040409B
:100630003D3C24FF2424487E4943662B2FFC2F2B6E
:10064000FF0929F620C0887E09032054547941000F
:1006500000447D413048484A32384040227A007A8E
:100660000A0A727D0D19317D2629292F282629296C
:10067000292630484D40203808080808080808088E
:10068000382F10C8ACBA2F102834FA00007B0000B5
:1006900008142A142222142A14085500550055AAB9
:1006A00055AA55AAFF55FF55FF000000FF00101086
:1006B00010FF00141414FF001010FF00FF1010F0C2
:1006C00010F0141414FC001414F700FF0000FF00D5
:1006D000FF1414F404FC141417101F10101F101F23
:1006E0001414141F00101010F0000000001F101050
:1006F00010101F10101010F010000000FF1010104C
:10070000101010101010FF10000000FF140000FF68
:1007100000FF00001F10170000FC04F41414171051
:10072000171414F404F40000FF00F7141414141444
:100730001414F700F7141414171410101F101F14BA
:100740001414F4141010F010F000001F101F00001B
:10075000001F14000000FC140000F010F01010FF47
:1007600010FF141414FF141010101F00000000F0EC
:1007700010FFFFFFFFFFF0F0F0F0F0FFFFFF0000C1
:10078000000000FFFF0F0F0F0F0F3844443844FCE8
:100790004A4A4A347E02020606027E027E026355FF
:1007A0004941633844443C04407E201E2006027EBA
:1007B000020299A5E7A5991C2A492A1C4C720172CC
:1007C0004C304A4D4D303048784830BC625A463D36
:1007D0003E494949007E0101017E2A2A2A2A2A44EB
:1007E000445F444440514A444040444A5140000020
:1007F000FF0103E080FF000008086B6B083612362B
:100800002436060F090F060000181800000010100B
:10081000003040FF0101001F01011E00191D1712C9
:10082000003C3C3C3C00000000008A085016F818D0
:1008300011241FBECFEFD1E2DEBFCDBF00E00CBF61
:1008400013E0A0E0B2E0E8E0FFE600E00BBF02C08A
:1008500007900D92AC3FB107D9F72BE0ACEFB3E0B6
:1008600001C01D92AB3CB207E1F714E0C8E1D4E04F
:1008700000E006C021970109802FFE010E943D374C
:10088000C531D10780E00807A9F70E94D20F0C9468
:10089000AE360C9400002F923F924F925F926F926F
:1008A0007F928F929F92AF92BF92CF92DF92EF9200
:1008B000FF920F931F93CF93DF93CDB7DEB7CA5448
:1008C000D1090FB6F894DEBF0FBECDBF9CAF8BAF82
:1008D0004B0158AF4FAB39011EAF0DAF2196FFAEA4
:1008E000EEAE21972396BFAEAEAE23970DB71EB7DF
:1008F00025961FAF0EAF25978E01045E1F4FC801CE
:100900000E94C919ABADBCAD4D915C9121E065E78A
:1009100079E0CE0101960E9476188B819C819F8F91
:100920008E8F8D819E81AF81B88588A399A3AAA35C
:10093000BBA389859A85AB85BC858CA39DA3AEA3FB
:10094000BFA38DE0FE013D96DE01989601900D92C9
:100950008A95E1F78A8D9B8D9EAB8DABC8010E9475
:10096000511AF82ECE0101960E94DC19FF20C1F029
:10097000F601EE0FFF1FFAAFE9AF1301412C512C26
:10098000E12CF12CAFA9B8ADCD01A0E0B0E02996E3
:100990008CAF9DAFAEAFBFAF2997702E612E29C02F
:1009A00069E172E083E397E00E943112EBADFCADA8
:1009B0006081718183E397E00E94311267E283E3F3
:1009C00097E00E946012A6C0D401ED91FC910288CC
:1009D000F389E02DC40119950FB6F894BEBE0FBE81
:1009E000ADBEBFEFEB1AFB0AEFEF2E1A3E0A4E0A1E
:1009F0005E0A23960EAD1FAD2397E016F10609F4AB
:100A000082C0ADB6BEB60DB71EB729AD3AAD021B5A
:100A1000130B0FB6F8941EBF0FBE0DBF8DB79EB758
:100A2000019698AF8FABEBADFCADA281B381A20173
:100A300091010E94633729960CAD1DAD2EAD3FADDF
:100A40002997060F171F281F391FB901A801440F46
:100A5000551F661F771F872D962D0E94E71949ADF8
:100A60005AAD6FA978AD872D962D0E94DD1929AD5D
:100A70003AAD8217930781F06AE272E083E397E070
:100A80000E944E12872D962D0E943F1A0FB6F894A1
:100A9000BEBE0FBEADBE3EC0D401ED91FC9106803E
:100AA000F781E02DC401199501E010E0960121962F
:100AB0004EAD5FAD21974E0D5F1D6DAD7EADC40196
:100AC0000E945D330FA918AD20E030E02C153D05E4
:100AD00009F47ACFF801619171918F017627672728
:100AE0007627C4012A962FAF2A972B963FAF2B97D4
:100AF0000E940E342A962FAD2A972B963FAD2B9746
:100B00002F5F3F4FE3CFCE014C960E943F1ACE019C
:100B10004C9602C0CE014C960E94DC1925962EAD53
:100B20003FAD25970FB6F8943EBF0FBE2DBFC65BF5
:100B3000DF4F0FB6F894DEBF0FBECDBFDF91CF9170
:100B40001F910F91FF90EF90DF90CF90BF90AF90EB
:100B50009F908F907F906F905F904F903F902F90DD
:100B60000895AF92BF92CF92DF92EF92FF920F93D0
:100B70001F937B0124E0E21AF1088C010450110953
:100B80002091740630917506260F371F24503109C5
:100B90004091760650917706480F591F44505109ED
:100BA00089E0A82EB12C99E0C92ED12C60E976E01D
:100BB00088E092E00E944B041F910F91FF90EF900C
:100BC000DF90CF90BF90AF900895AF92BF92CF9239
:100BD000DF92EF92FF920F931F93BC01990F880B46
:100BE000990B2FEF2F9323E52F9320E12F9328E8E4
:100BF0002F9324E3A22E27E8B22E22E5C22EDD2475
:100C0000DA94E12C18E0F12E00E010E020E030E072
:100C1000A9010E9422170F900F900F900F901F9123
:100C20000F91FF90EF90DF90CF90BF90AF9008951D
:100C3000AF92BF92CF92DF92EF92FF920F931F93EA
:100C4000BC01990F880B990B1F9221E52F932FE779
:100C50002F9329E12F9322ECA22E20EDB22E21E535
:100C6000C22ED12CE12C18E0F12E00E010E020E0A3
:100C700030E0A9010E9422170F900F900F900F9063
:100C80001F910F91FF90EF90DF90CF90BF90AF90AA
:100C90000895AF92BF92CF92DF92EF92FF920F939F
:100CA0001F931F921F9228E02F931F92A12CB12C0B
:100CB000650118E8E12E10E1F12E03E51FEF24E3B2
:100CC00037E842E55FEF0E9422170F900F900F90D8
:100CD0000F90CB011F910F91FF90EF90DF90CF907D
:100CE000BF90AF900895AF92BF92CF92DF92EF92F4
:100CF000FF920F931F931F921F9228E02F931F9232
:100D0000A12CB12C650119E1E12E1FE7F12E01E5BF
:100D100010E022EC30ED41E550E00E9422170F90E8
:100D20000F900F900F90CB011F910F91FF90EF90BC
:100D3000DF90CF90BF90AF900895CF93DF93CDB762
:100D4000DEB7C054D1090FB6F894DEBF0FBECDBFD9
:100D50006BEB72E083E397E0C05CDF4F0FB6F89473
:100D6000DEBF0FBECDBFDF91CF910C944E12AF927C
:100D7000BF92CF92DF92EF92FF920F931F93DC010D
:100D8000CB018E199F09A00BB10B89019A010A1999
:100D90001B092C093D0937FF07C030952095109598
:100DA00001951F4F2F4F3F4FB7FF07C0B095A0953C
:100DB000909581959F4FAF4FBF4FBC01CD01600F04
:100DC000711F821F931F1F910F91FF90EF90DF9073
:100DD000CF90BF90AF900895CF92DF92EF92FF92A5
:100DE0000F931F93CF93DF93EC018B016C0197FF5F
:100DF00003C087E0C80ED11C93E0D594C7949A95A0
:100E0000E1F70D2C000CEE08FF0889E0D80E8DE309
:100E1000E81EF11C8091000290910102A091020253
:100E2000B09103028C159D05AE05BF05C9F024E7FE
:100E300034E0B701A60188E796E00E94ED23811116
:100E400007C06DED72E083E397E00E944E12EFCF92
:100E5000C0920002D0920102E0920202F0920302DC
:100E6000CE0168E070E00E94E836FC0186E0EE0FFB
:100E7000FF1F8A95E1F7EC58FB4F80E4D801019001
:100E80000D928A95E1F7DF91CF911F910F91FF901D
:100E9000EF90DF90CF900895CF92DF92EF92FF9284
:100EA0000F931F93FC010081118122813381FB018B
:100EB000C080D180E280F380FC01C082D182E282D6
:100EC000F382FB0100831183228333831F910F91EF
:100ED000FF90EF90DF90CF900895CF92DF92EF9246
:100EE000FF920F931F93CF93DF938C017B0181E0DF
:100EF000E81AF108660F771F660F771FC12CD12CF7
:100F0000EB0124971E141F0484F5F80121E030E062
:100F100060E070E0DB01AA0FBB1FAA0FBB1FA00F90
:100F2000B11F4681578112968D919C91139784171A
:100F3000950708F4B9012F5F3F4F3496E216F30688
:100F40004CF7660F771F660F771F600F711FCE017A
:100F50008C0D9D1D800F911F0E944C0781E0E81AA7
:100F6000F10884E0C81AD108CDCFDF91CF911F914D
:100F70000F91FF90EF90DF90CF9008952F923F92C6
:100F80004F925F926F927F928F929F92AF92BF9299
:100F9000CF92DF92EF92FF920F931F93CF93DF9345
:100FA000CDB7DEB7CC5ED0410FB6F894DEBF0FBE32
:100FB000CDBFCE0101964C01C751DF4E9983888386
:100FC000C95ED041612C712CE9EAF0E1EC0FFD1F04
:100FD0003996C551DF4EF983E883CB5ED041BE011F
:100FE00067557F4EC3010E94EC06C755DF4E28802F
:100FF00039804A805B80C95AD041C355DF4EE880B2
:10100000F9800A811B81CD5AD0412091840630910C
:1010100085064091860650918706609188067091FA
:10102000890680918A0690918B06620151010E9487
:10103000B706C751DF4EE881F981C95ED04173839D
:10104000628371826082F3EC2F16F0ED3F06F1E5CA
:101050004F06510454F0C551DF4E68817981CB5E53
:10106000D04183E397E00E944E128FEF681A780A0E
:10107000C751DF4EE881F981C95ED0413496C7512E
:10108000DF4EF983E883C95ED041FAE26F16F4E0DF
:101090007F0609F0A4CF6AE274E0C4010E946D07E4
:1010A0000CEF13E03E0189E7680E711CF4016281C8
:1010B0007381F80173836283F40180819181F80167
:1010C000918380834AE050E083E397E00E943613E7
:1010D000F4E08F0E911C0C5F1F4F8614970431F7BC
:1010E000C451DF4E0FB6F894DEBF0FBECDBFDF9107
:1010F000CF911F910F91FF90EF90DF90CF90BF9015
:10110000AF909F908F907F906F905F904F903F90A7
:101110002F9008952FEF49E06AE080E996E00E9461
:101120003430E8E7F6E01582168211861386809146
:10113000060290910702909377068093760680913D
:1011400004029091050290937506809374060895A9
:10115000EF92FF920F931F9344505109645071090D
:101160007C0109E010E029E030E080E996E00E948F
:10117000DD2F1F910F91FF90EF900895AF92BF92D6
:10118000CF92DF92EF92FF920F931F930E948610EF
:1011900040E855E260E070E083E397E00E94C81504
:1011A00062E082E00E945F1140E050E0BA0180E915
:1011B00096E00E94F5306EEF72E083E397E00E94C4
:1011C000311266E085E799E00E946317811107C03C
:1011D00066E173E083E397E00E944E12FFCF67E37E
:1011E00073E083E397E00E944E126BE373E083E3C6
:1011F00097E00E94311246E061E088E796E00E94A5
:101200005B22811107C06BE673E083E397E00E94E5
:101210004E12FFCF67E373E083E397E00E944E1224
:1012200063E080E996E00E94EB3260E070E080E9E4
:1012300096E00E94DC2A2091040230910502409140
:1012400006025091070280EFA82EB12CC12CDD249C
:10125000D394E12CF12C00E010E060E976E088E026
:1012600092E00E944B0480E890E090938F06809378
:101270008E0688E790E090938D0680938C0648E771
:1012800050E060E870E080E098EF1F910F91FF90D0
:10129000EF90DF90CF90BF90AF900C94A808AF92E2
:1012A000BF92CF92DF92EF92FF920F931F93CF9353
:1012B000DF9386E30E94E810EC0187E30E94E810C8
:1012C0008C01845F9140459720F4C43F21E0D20710
:1012D000B1F160918C0670918D0680918E0690918F
:1012E0008F060E94B105003C41E0140734F4809160
:1012F0008C0690918D06039709C0013482E018078F
:101300004CF080918C0690918D06039690938D06FB
:1013100080938C0620918E0630918F06C13442E076
:10132000D4071CF02350310906C0C03C81E0D80727
:1013300034F42D5F3F4F30938F0620938E060C3090
:10134000110534F480918C0690918D06059708C0A4
:10135000053F13404CF080918C0690918D060596C8
:1013600090938D0680938C0620918E0630918F0687
:10137000CC30D1051CF42B5F3F4F05C0C53FD34097
:1013800034F02550310930938F0620938E068091DA
:101390008E0690918F06843091050CF045C0C09167
:1013A0007606D0917706CF3FD10539F034F0C130C1
:1013B00088E0D8072CF4DA9505C0C0E0D0E002C080
:1013C000C0E0D7E0209174063091750660EFA62E3C
:1013D000B12CC12CDD24D394E12CF12C00E010E0E1
:1013E000AE0160E976E088E092E00E944B046091F3
:1013F0007606709177064AE050E083E397E00E941A
:1014000012138091760690917706892B09F03FC0E0
:1014100080918E0690918F06883F27E092070CF40A
:1014200058C087EF97E055C08C3F91050CF459C028
:10143000C0917606D0917706C1154FEFD40734F0EE
:10144000C13086E0D8072CF4D39505C0C0E0D0E0C9
:1014500002C0C0E0D7E0209174063091750640EFDD
:10146000A42EB12CC12CDD24D394E12CF12C00E06E
:1014700010E0AE0160E976E088E092E00E944B0463
:10148000809176069091770681159740C9F0D093A8
:101490007706C093760680E890E090938F0680935D
:1014A0008E0688E790E090938D0680938C0648E73F
:1014B00050E060E870E080E098EF0E94A80811C05A
:1014C00080918E0690918F068C3F910514F08BEFE2
:1014D00090E097FF02C080E090E090938F068093A9
:1014E0008E0680918C0690918D06843091050CF0CB
:1014F00040C0C0917406D0917506C03FD1053CF044
:10150000C13048E0D40734F4C05FD10905C0C0E061
:10151000D0E002C0C0E1D7E0409176065091770656
:1015200020EFA22EB12CC12CDD24D394E12CF12C80
:1015300000E010E09E0160E976E088E092E00E9421
:101540004B048091740690917506892BF1F580917A
:101550008C0690918D068430910544F0813127E00E
:1015600092070CF457C080E197E054C084E090E00B
:1015700051C08D3E91050CF451C0209174063091FC
:10158000750620314FEF340744F0213246E034072E
:10159000ACF5E901C051DF4F02C0C0E0D0E02051FE
:1015A0003F4F409176065091770680EFA82EB12CE0
:1015B000C12CDD24D394E12CF12C00E010E060E993
:1015C00076E088E092E00E944B04D0937506C093C9
:1015D000740680E890E090938F0680938E0688E7EB
:1015E00090E090938D0680938C0648E750E060E889
:1015F00070E080E098EF0E94A80810C0C0E1D7E03A
:10160000203147E0340759F6883027E0920714F07C
:1016100087E097E090938D0680938C0640918C062E
:1016200050918D0660918E0670918F0680E098EF44
:101630000E94A80820918E0630918F068091760630
:1016400090917706820F931F0E94E50560938806AC
:101650007093890680938A0690938B0620918C065E
:1016600030918D068091740690917506820F931FBC
:101670000E94180660938406709385068093860600
:101680009093870664E170E080E090E0DF91CF9175
:101690001F910F91FF90EF90DF90CF90BF90AF9090
:1016A0000C9460104F925F926F927F92AF92BF92B4
:1016B000CF92DF92EF92FF920F931F93CF93DF931E
:1016C00000D01F92CDB7DEB72B013C0129833A83AE
:1016D0004B835C83CA01B9010E9449068038910599
:1016E00094F069817A818B819C810E9449068138BE
:1016F000974064F469817A818B819C810E944906BC
:101700008058910905C080E090E002C080E097E039
:101710009093770680937606C301B2010E94730608
:10172000883791057CF0C301B2010E9473068938A5
:1017300097405CF4C301B2010E947306BC01685774
:10174000710905C060E070E002C060E177E070936D
:101750007506609374064AE050E083E397E00E94C8
:10176000121360917406709175064AE050E083E3AD
:1017700097E00E94121360917606709177064AE016
:1017800050E083E397E00E941213809176069091D7
:101790007706892B81F569817A818B819C810E94F2
:1017A000490697FD28C060E070E080E996E00E945D
:1017B000DC2A20917406309175064091760650918E
:1017C0007706A0EFAA2EB12CC12CDD24D394E12CF6
:1017D000F12C00E010E060E976E088E092E00E9401
:1017E0004B0469817A818B819C810E944906BC01EE
:1017F0006450710936C08091760690917706811504
:101800009740E1F569817A818B819C810E9449062C
:10181000813098409CF560E070E080E996E00E949D
:10182000DC2A20917406309175064091760650911D
:101830007706E0EFAE2EB12CC12CDD24D394E12C41
:10184000F12C00E010E060E976E088E092E00E9490
:101850004B0469817A818B819C810E944906BC017D
:10186000775070938F0660938E0684E790E0909394
:101870008D0680938C0644E750E096C180917406F3
:1018800090917506892B91F5C301B2010E947306F0
:1018900097FD2CC060E070E080E996E00E94DC2AB1
:1018A0002091740630917506409176065091770626
:1018B00060EFA62EB12CC12CDD24D394E12CF12CA9
:1018C00000E010E060E976E088E092E00E944B04DE
:1018D0008CE790E090938F0680938E06C301B2014F
:1018E0000E947306AC014950510939C080917406B9
:1018F0009091750680319740D9F5C301B2010E94DD
:10190000730681309840A4F560E070E080E996E0CD
:101910000E94DC2A2091740630917506409176066B
:101920005091770680EFA82EB12CC12CDD24D394E2
:10193000E12CF12C00E010E060E976E088E092E034
:101940000E944B048CE790E090938F0680938E0664
:10195000C301B2010E947306AC014051574050933D
:101960008D0640938C0660918E0670918F061CC187
:101970008091760690917706892B41F469817A816E
:101980008B819C810E94490697FD41C0809176061B
:10199000909177068115974009F066C069817A8138
:1019A0008B819C810E944906813098400CF45CC078
:1019B00060E070E080E996E00E94DC2A20917406E5
:1019C000309175064091760650917706A0EFAA2EC9
:1019D000B12CC12CDD24D394E12CF12C00E010E0DB
:1019E00060E976E088E092E00E944B0487EF90E0A7
:1019F00090938F0680938E0684E790E090938D06F7
:101A000080938C0644E750E067EF70E0CDC060E063
:101A100070E080E996E00E94DC2A20917406309103
:101A20007506409176065091770610EFA12EB12CE5
:101A3000C12CDD24D394E12CF12C00E010E060E90E
:101A400076E088E092E00E944B0410928F0610929C
:101A50008E0684E790E090938D0680938C0644E791
:101A600050E060E070E0A0C080917406909175062F
:101A7000892B89F5C301B2010E94730697FF2BC021
:101A800060E070E080E996E00E94DC2A2091740614
:101A9000309175064091760650917706E0EFAE2EB4
:101AA000B12CC12CDD24D394E12CF12C00E010E00A
:101AB00060E976E088E092E00E944B048CE790E0D9
:101AC00090938F0680938E0610928D0610928C064E
:101AD00040E050E067C080917406909175068031B7
:101AE0009740A1F5C301B2010E947306813098406E
:101AF0006CF160E070E080E996E00E94DC2A2091C1
:101B0000740630917506409176065091770660EF25
:101B1000A62EB12CC12CDD24D394E12CF12C00E0B5
:101B200010E060E976E088E092E00E944B048CE7E8
:101B300090E090938F0680938E0687EE90E09093CE
:101B40008D0680938C0647EE50E02CC060E070E07C
:101B500080E996E00E94DC2A209174063091750697
:101B6000409176065091770680EFA82EB12CC12CBB
:101B7000DD24D394E12CF12C00E010E060E976E064
:101B800088E092E00E944B048CE790E090938F06EF
:101B900080938E0684E790E090938D0680938C0668
:101BA00044E750E06CE770E080E098EF0F900F9012
:101BB0000F900F90DF91CF911F910F91FF90EF90B9
:101BC000DF90CF90BF90AF907F906F905F904F90DD
:101BD0000C94A808AF92BF92CF92DF92EF92FF923F
:101BE0000F931F93CF93DF93CDB7DEB7C054D109C6
:101BF0000FB6F894DEBF0FBECDBF60E070E080E9A5
:101C000096E00E94DC2A40E050E060E070E080E96D
:101C100096E00E94F22E60E080E996E00E94FE2E9F
:101C20006CEFE62E63E0F62E00E010E0BE016F5F81
:101C30007F4FF701808191810E94EC06011511050B
:101C400029F040E050E06FEF7FEF04C04FEF5FEF0F
:101C500060E070E080E996E00E94F82EBE01665FC9
:101C60007F4F80E996E00E94311263E773E080E9DC
:101C700096E00E9431120F5F1F4FF4E0EF0EF11C4F
:101C80000E31110599F663E773E080E996E00E9452
:101C90003112E12CF12C00E010E082E00E94CB1127
:101CA0006C0187E30E94E810813422E092070CF473
:101CB00094C068018FEFC81AD80AEEE1CE16D1049D
:101CC000ECF1BE016F5F7F4F8091FC039091FD03AB
:101CD0000E94EC064FEF5FEF60E070E080E996E075
:101CE0000E94F82E40E050E060E070E080E996E06D
:101CF0000E94F22EBE01665F7F4F80E996E00E944F
:101D00003112BE016F5F7F4F80917004909171041A
:101D10000E94EC0640E050E06FEF7FEF80E996E034
:101D20000E94F82E48EE50E060E070E080E996E016
:101D30000E94F22EBE01665F7F4FA7CF5701F8E0E9
:101D4000AF0EB11CF601EE0FFF1FEE0FFF1FE450A8
:101D5000FC4FBE016F5F7F4F808191810E94EC0636
:101D60004FEF5FEF60E070E080E996E00E94F82EB0
:101D7000A50160E070E080E996E00E94F22EBE01CD
:101D8000665F7F4F80E996E00E943112000F111FBD
:101D9000000F111FF801E450FC4FBE016F5F7F4F31
:101DA000808191810E94EC0640E050E06FEF7FEF70
:101DB00080E996E00E94F82EA70160E070E080E9DB
:101DC00096E00E94F22EBE01665F7F4F80E996E0AA
:101DD0000E9431127501860160CF803C91400CF069
:101DE0009BC0580181E0A81AB10808F046C0BE01A6
:101DF0006F5F7F4F80917004909171040E94EC0698
:101E00004FEF5FEF60E070E080E996E00E94F82E0F
:101E100048EE50E060E070E080E996E00E94F22E2B
:101E2000BE01665F7F4F80E996E00E943112BE01DD
:101E30006F5F7F4F8091FC039091FD030E94EC0641
:101E400040E050E06FEF7FEF80E996E00E94F82ECF
:101E500040E050E060E070E080E996E00E94F22E01
:101E6000BE01665F7F4F80E996E00E94311238EE36
:101E7000E32EF12C0DE110E010CF6701F8E0CF1A4E
:101E8000D108F501EE0FFF1FEE0FFF1FE450FC4FCE
:101E9000BE016F5F7F4F808191810E94EC064FEF02
:101EA0005FEF60E070E080E996E00E94F82EA60106
:101EB00060E070E080E996E00E94F22EBE01665F6D
:101EC0007F4F80E996E00E943112000F111F000F32
:101ED000111FF801E450FC4FBE016F5F7F4F8081FE
:101EE00091810E94EC0640E050E06FEF7FEF80E9C7
:101EF00096E00E94F82EA70160E070E080E996E08D
:101F00000E94F22EBE01665F7F4F80E996E00E943C
:101F1000311276018501C1CECD2809F0BECE000F69
:101F2000111F000F111FF801E450FC4FBE016F5F3D
:101F30007F4F808191810E94EC062D813E814F81EF
:101F4000588569817A818B819C810E94520BC05C8B
:101F5000DF4F0FB6F894DEBF0FBECDBFDF91CF913C
:101F60001F910F91FF90EF90DF90CF90BF90AF90B7
:101F7000089560E070E080E996E00E94DC2A40E08D
:101F800050E060E070E080E996E00E94F22E60E0B0
:101F900080E996E00E94FE2E0E949D060E94BE07E8
:101FA0000C94EA0D0E94BE0882E00E94CB1121E051
:101FB000892B09F420E02093C306222319F00E9404
:101FC0004F09F2CF0E94B90FEFCF1F920F920FB6B9
:101FD0000F9211242F933F938F939F93AF93BF93AF
:101FE0008091C5069091C606A091C706B091C8061B
:101FF0003091C40623E0230F2D3720F40196A11D54
:10200000B11D05C026E8230F0296A11DB11D209326
:10201000C4068093C5069093C606A093C706B093E6
:10202000C8068091C9069091CA06A091CB06B091CE
:10203000CC060196A11DB11D8093C9069093CA06D6
:10204000A093CB06B093CC06BF91AF919F918F9197
:102050003F912F910F900FBE0F901F9018952FB7A3
:10206000F8946091C5067091C6068091C70690915C
:10207000C8062FBF08953FB7F8948091C906909184
:10208000CA06A091CB06B091CC0626B5A89B05C088
:102090002F3F19F00196A11DB11D3FBFBA2FA92FE7
:1020A000982F8827820F911DA11DB11DBC01CD0164
:1020B00042E0660F771F881F991F4A95D1F7089550
:1020C000CF92DF92EF92FF92CF93DF936B017C016F
:1020D0000E943B10EB01C114D104E104F10479F03A
:1020E0000E943B106C1B7D0B683E7340A0F381E0A7
:1020F000C81AD108E108F108C851DC4FECCFDF91D4
:10210000CF91FF90EF90DF90CF900895789484B5B1
:10211000826084BD84B5816084BD85B5826085BDE3
:1021200085B5816085BDEEE6F0E0808181608083C9
:10213000E1E8F0E0108280818260808380818160AC
:102140008083E0E8F0E0808181608083E1EBF0E073
:10215000808184608083E0EBF0E080818160808317
:10216000E1E9F0E08081826080838081816080830A
:10217000E0E9F0E0808181608083E1EAF0E0808145
:1021800082608083808181608083E0EAF0E08081EA
:1021900081608083E1E2F1E08081826080838081E0
:1021A00081608083E0E2F1E0808181608083EAE702
:1021B000F0E0808184608083808182608083808180
:1021C000816080838081806880831092C10008953F
:1021D000863308F0865390917B00282F2870977FD4
:1021E000922B90937B00877020910E0290E4299FA0
:1021F00090011124822B80937C0080917A0080646E
:1022000080937A0080917A0086FDFCCF80917800DF
:102210002091790090E0922B089590E0FC01319795
:10222000E131F10508F04AC08827EE58FF4F8F4F83
:102230000C943D37809180008F7703C0809180009F
:102240008F7D80938000089584B58F7702C084B518
:102250008F7D84BD08958091B0008F7703C08091F9
:10226000B0008F7D8093B0000895809190008F77AB
:1022700007C0809190008F7D03C080919000877F80
:102280008093900008958091A0008F7707C080917F
:10229000A0008F7D03C08091A000877F8093A00065
:1022A0000895809120018F7707C0809120018F7D54
:1022B00003C080912001877F809320010895CF93F0
:1022C000DF9390E0FC01E05CFD4F2491FC01EA57B4
:1022D000FD4F8491882361F190E0880F991FFC01E4
:1022E000E050FD4FC591D491FC01EA51FD4FA591FD
:1022F000B491611109C09FB7F89488812095822319
:102300008883EC912E230BC0623061F49FB7F89460
:102310003881822F809583238883EC912E2B2C93F8
:102320009FBF06C08FB7F894E8812E2B28838FBFFC
:10233000DF91CF9108951F93CF93DF93282F30E043
:10234000F901E650FE4F8491F901E05CFD4FD49114
:10235000F901EA57FD4FC491CC23C9F0162F811122
:102360000E940D11EC2FF0E0EE0FFF1FEA51FD4F20
:10237000A591B4918FB7F894111105C09C91ED2FE0
:10238000E095E92302C0EC91ED2BEC938FBFDF9138
:10239000CF911F910895CF93DF93282F30E0F9015B
:1023A000E650FE4F8491F901E05CFD4FD491F901B4
:1023B000EA57FD4FC491CC2391F081110E940D1179
:1023C000EC2FF0E0EE0FFF1FE453FD4FA591B49109
:1023D000EC91ED2381E090E021F480E002C080E008
:1023E00090E0DF91CF910895CF92DF92EF92FF922C
:1023F0000F931F93CF93DF936C01EB017B01E40EEE
:10240000F51E00E010E0CE15DF0561F06991D60100
:10241000ED91FC910190F081E02DC6011995080F16
:10242000191FF1CFC801DF91CF911F910F91FF903C
:10243000EF90DF90CF9008956115710579F0FB0161
:1024400001900020E9F73197AF01461B570BDC01E3
:10245000ED91FC910280F381E02D199480E090E0F1
:1024600008950C941C12DC01ED91FC910190F08117
:10247000E02D19940F931F93CF93DF93EC016DE040
:102480000E9433128C016AE0CE010E943312800F49
:10249000911FDF91CF911F910F9108950F931F937B
:1024A000CF93DF93EC010E941C128C01CE010E949D
:1024B0003A12800F911FDF91CF911F910F910895D4
:1024C0000F931F93CF93DF93EC010E9433128C0183
:1024D000CE010E943A12800F911FDF91CF911F9180
:1024E0000F9108958F929F92AF92BF92CF92DF92F9
:1024F000EF92FF920F931F93CF93DF93CDB7DEB789
:10250000A1970FB6F894DEBF0FBECDBF6C01142F9C
:10251000E52FCB01022F19A2223008F40AE07E0138
:1025200021E2E20EF11C802E912CA12CB12C612F06
:102530007E2FA50194010E94FC36029F10191124E0
:1025400081E0E81AF1081A3014F4105D01C0195C3A
:10255000F7011083122FE32FCA01232B242B252BE5
:1025600031F7B701C6010E941C12A1960FB6F8946C
:10257000DEBF0FBECDBFDF91CF911F910F91FF90B6
:10258000EF90DF90CF90BF90AF909F908F90089585
:10259000CF92DF92EF92FF920F931F93CF93DF932F
:1025A000EC016A017B012115310579F4E881F9819B
:1025B0000190F081E02D642FDF91CF911F910F9159
:1025C000FF90EF90DF90CF9019942A303105E9F415
:1025D00077FF1AC06DE20E9433128C014427552701
:1025E000BA014C195D096E097F092AE0CE010E94EB
:1025F0007212800F911FDF91CF911F910F91FF9069
:10260000EF90DF90CF9008952AE0B701A601CE01A8
:10261000DF91CF911F910F91FF90EF90DF90CF90BE
:102620000C9472120F931F93CF93DF93EC019A01D6
:10263000AB01770F660B770B0E94C8128C01CE019D
:102640000E943A12800F911FDF91CF911F910F913D
:1026500008952115310541F4DC01ED91FC910190C3
:10266000F081E02D642F19940C9472120F931F9334
:10267000CF93DF93EC019A01AB0160E070E00E9420
:1026800029138C01CE010E943A12800F911FDF9115
:10269000CF911F910F9108950895FC0124853585F0
:1026A000F901E05CFF4F8081918132962081318178
:1026B000821B930B8F7399270895DC011C96ED9173
:1026C000FC911D97DF01A05CBF4F2D913C911197AC
:1026D00012968D919C9111972817390739F08D9199
:1026E0009C91E80FF91F808190E008958FEF9FEF94
:1026F0000895FC01A485B585FD01E05CFF4F2081B4
:1027000031813296808191812817390779F0808153
:102710009181A80FB91F8C91208131812F5F3F4F8C
:102720002F7333273183208390E008958FEF9FEF3D
:102730000895FC0181A1882329F0A489B5898C9191
:1027400086FFFBCF11A208950F931F93CF93DF93C2
:10275000FC01A685B7858D01005C1F4FE8018881CB
:10276000998101968F739927AD014E5B5F4FEA0106
:102770002881398182179307D1F3E80128813981B3
:10278000A20FB31F6C93A685B785A05CBF4F1196AF
:102790009C938E93A689B7892C9181E090E0078C59
:1027A00002C0880F991F0A94E2F7822B8C9381E074
:1027B00081A30488F589E02D80818064808381E095
:1027C00090E0DF91CF911F910F910895FB01E05CA4
:1027D000FF4F208131812F5F3F4F2F733327DB0164
:1027E000AE5BBF4F4D915C912417350741F040819E
:1027F0005181DB01A40FB51F8C9331832083089591
:102800001F920F920FB60F9211240BB60F922F93B7
:102810003F934F935F936F937F938F939F93AF9368
:10282000BF93EF93FF938091C00082FD07C080911A
:10283000C60061E379E00E94E61302C08091C60001
:10284000FF91EF91BF91AF919F918F917F916F9188
:102850005F914F913F912F910F900BBE0F900FBE44
:102860000F901F9018951F920F920FB60F92112480
:102870000BB60F922F933F934F935F936F937F937A
:102880008F939F93AF93BF93EF93FF938091C80073
:1028900082FD07C08091CE0069EA78E00E94E613CD
:1028A00002C08091CE00FF91EF91BF91AF919F91B7
:1028B0008F917F916F915F914F913F912F910F90E9
:1028C0000BBE0F900FBE0F901F9018951F920F9286
:1028D0000FB60F9211240BB60F922F933F934F9385
:1028E0005F936F937F938F939F93AF93BF93EF9378
:1028F000FF938091D00082FD07C08091D60061E2F5
:1029000078E00E94E61302C08091D600FF91EF911B
:10291000BF91AF919F918F917F916F915F914F91F7
:102920003F912F910F900BBE0F900FBE0F901F90F5
:1029300018951F920F920FB60F9211240BB60F929B
:102940002F933F934F935F936F937F938F939F93B7
:10295000AF93BF93EF93FF938091300182FD07C047
:102960008091360169E977E00E94E61302C0809108
:102970003601FF91EF91BF91AF919F918F917F9120
:102980006F915F914F913F912F910F900BBE0F90E0
:102990000FBE0F901F9018951F920F920FB60F92B7
:1029A00011240BB60F922F933F938F939F93EF9326
:1029B000FF9320912D0930912E0980912F0990913C
:1029C00030092817390731F48091C1008F7D809339
:1029D000C10014C0E0912F09F0913009E351F74F85
:1029E000208180912F099091300901968F7399274A
:1029F0009093300980932F092093C600FF91EF91A7
:102A00009F918F913F912F910F900BBE0F900FBE12
:102A10000F901F9018951F920F920FB60F921124CE
:102A20000BB60F922F933F938F939F93EF93FF9348
:102A30002091A5083091A6088091A7089091A80838
:102A40002817390731F48091C9008F7D8093C90020
:102A500014C0E091A708F091A808EB59F74F208126
:102A60008091A7089091A80801968F739927909359
:102A7000A8088093A7082093CE00FF91EF919F9123
:102A80008F913F912F910F900BBE0F900FBE0F9023
:102A90001F9018951F920F920FB60F9211240BB62C
:102AA0000F922F933F938F939F93EF93FF932091D8
:102AB0001D0830911E0880911F089091200828174A
:102AC000390731F48091D1008F7D8093D10014C0FB
:102AD000E0911F08F0912008E352F84F2081809187
:102AE0001F089091200801968F73992790932008D2
:102AF00080931F082093D600FF91EF919F918F91B3
:102B00003F912F910F900BBE0F900FBE0F901F9013
:102B100018951F920F920FB60F9211240BB60F92B9
:102B20002F933F938F939F93EF93FF93209195075C
:102B30003091960780919707909198072817390749
:102B400031F4809131018F7D8093310114C0E09187
:102B50009707F0919807EB5AF84F208180919707DB
:102B60009091980701968F73992790939807809377
:102B7000970720933601FF91EF919F918F913F919D
:102B80002F910F900BBE0F900FBE0F901F901895B6
:102B9000CF92DF92EF92FF920F931F93CF93DF9329
:102BA000EC016A017B014115514E6105710509F186
:102BB000EC89FD8981E090E008A002C0880F991F90
:102BC0000A94E2F7808360E079E08DE390E0A7016A
:102BD00096010E94FC3689019A01015011092109D0
:102BE00031093695279517950795980101151041DC
:102BF000A8F0EC89FD89108260E874E88EE190E02D
:102C0000A70196010E94FC36DA01C9010197A109CA
:102C1000B109B695A795979587959C01E889F9899B
:102C20003083EA89FB89208319A2EE89FF894081DC
:102C300081E090E09C010C8C02C0220F331F0A94AB
:102C4000E2F7242B2083EE89FF8940819C010D8CC3
:102C500002C0220F331F0A94E2F7242B2083EE894F
:102C6000FF8940819C010E8C02C0220F331F0A9401
:102C7000E2F7242B2083EE89FF8920810F8C02C08C
:102C8000880F991F0A94E2F7809582238083DF9151
:102C9000CF911F910F91FF90EF90DF90CF9008950B
:102CA000CF92DF92EF92FF92E3E3F7E0138212827A
:102CB00088EEC82E83E0D82EE12CF12CC482D58278
:102CC000E682F78265E873E07183608381E399E0CF
:102CD000958784878DEE98E09787868785EC90E0CE
:102CE000918B808B84EC90E0938B828B80EC90E0D6
:102CF000958B848B81EC90E0978B868B82EC90E0B7
:102D0000918F808F86EC90E0938F828F44E0448F88
:102D100033E0358F27E0268F95E0978F81E080A301
:102D2000E1E1F7E013821282C482D582E682F78263
:102D300071836083A9EAB8E0B587A487A5E6B8E007
:102D4000B787A687ADECB0E0B18BA08BACECB0E060
:102D5000B38BA28BA8ECB0E0B58BA48BA9ECB0E050
:102D6000B78BA68BAAECB0E0B18FA08FAEECB0E031
:102D7000B38FA28F448F358F268F978F80A3EFEE6E
:102D8000F6E013821282C482D582E682F7827183D2
:102D90006083A1E2B8E0B587A487ADEDB7E0B7875F
:102DA000A687A5EDB0E0B18BA08BA4EDB0E0B38B0E
:102DB000A28BA0EDB0E0B58BA48BA1EDB0E0B78BFA
:102DC000A68BA2EDB0E0B18FA08FA6EDB0E0B38FDF
:102DD000A28F448F358F268F978F80A3EDECF6E07E
:102DE00013821282C482D582E682F7827183608365
:102DF00069E977E07587648765E577E077876687B7
:102E000065E371E0718B608B64E371E0738B628BBF
:102E100060E371E0758B648B61E371E0778B668BA7
:102E200062E371E0718F608F66E371E0738F628F90
:102E3000448F358F268F978F80A3FF90EF90DF9080
:102E4000CF9008954F925F926F927F92AF92BF9210
:102E5000CF92DF92EF92FF920F931F93CF93DF9366
:102E6000CDB7DEB729013A019B01AC012419350920
:102E7000460957098A899B89AC89BD89BC01CD0166
:102E80006A197B098C099D090E94D836A80197010F
:102E900024193509460957090E941E37CA01B9018C
:102EA0006A0D7B1D8C1D9D1DDF91CF911F910F9190
:102EB000FF90EF90DF90CF90BF90AF907F906F909A
:102EC0005F904F9008950F931F93CF93DF93EC0182
:102ED000462F61E00E945B22882391F08E01045FFF
:102EE0001F4F41E0BE01C8010E941128882351F004
:102EF000B801CE018A960E94371B91E081110AC069
:102F000090E008C040E0BE01C8010E94112888235B
:102F1000B9F3EECF892FDF91CF911F910F910895D3
:102F2000FC01DB0112968D919C9113979383828310
:102F300087EA93E09183808314968C91149784831D
:102F400015968C911597858316964D915D916D918F
:102F50007C91199746835783608771871A964D91A4
:102F60005D916D917C911D9742875387648775872A
:102F70001E964D915D916D917C9151974687578733
:102F8000608B718B52968C915297828B53964D9198
:102F90005D916D917C915697438B548B658B768BAD
:102FA00057964D915D916D917C915A97478B508FBB
:102FB000618F728F5B968D919C915C97948F838FBC
:102FC00008954F925F926F927F928F929F92AF92ED
:102FD000BF92CF92DF92EF92FF920F931F93CF9306
:102FE000DF93CDB7DEB7C754D1090FB6F894DEBF73
:102FF0000FBECDBF6C015A014901665D7F4F7E0156
:103000008EE1E80EF11CC7010E9490171C821B8202
:1030100087EA93E09A8389831E828501FE013196B7
:103020003F0127016FE270E0C8010E94BE360097A1
:10303000D9F1F80120812F3219F40F5F1F4FF2CF21
:10304000801B8D3008F08CE0E82EF12CA701B80130
:10305000CE01CB960E94C936EBE3F0E0EC0FFD1FEA
:10306000EE0DFF1D1082C3010E94B31D21E0AE01D1
:10307000455C5F4FB201C3010E94E71E811109C088
:10308000F6011382128287EA93E09183808315828E
:1030900014C00E0D1F1DC2010E94B31D942D852D5D
:1030A0002301692E782EBECF0A191B09F401118362
:1030B0000083B201C6010E949017C601C95BDF4FB1
:1030C0000FB6F894DEBF0FBECDBFDF91CF911F9139
:1030D0000F91FF90EF90DF90CF90BF90AF909F90B7
:1030E0008F907F906F905F904F900895CF92DF9276
:1030F000FF920F931F93CF93DF93CDB7DEB7C955E0
:10310000D1090FB6F894DEBF0FBECDBF6C018A01A6
:10311000F22E9E01285A3F4FCE01CB960E94E11716
:103120006A968EAD9FAD6A97080F191FF8018081CE
:1031300081110AC0BE01655C7F4FCE0101960E94DD
:10314000901741E953E03EC019A218A287EA93E024
:103150009F8F8E8F1BA221968FAD2197811104C066
:10316000C6010E94C91934C082502F2DA801823097
:1031700048F46FE979E0CE014E960E94E71E811176
:103180000EC0EECFBE01655C7F4FCE014E960E9411
:10319000E71E882329F3CE01CB960E94B31D9F2DF5
:1031A000967041F049A95AA96BA97CA9CE014E9607
:1031B0000E94D61CBE01625E7F4FCE0101960E9426
:1031C0009017A801BE016F5F7F4FC6010E9494193E
:1031D000C601C75ADF4F0FB6F894DEBF0FBECDBF92
:1031E000DF91CF911F910F91FF90DF90CF900895C5
:1031F000E5E7F9E0158216821186138682E090E0F9
:10320000A0E0B0E084879587A687B78713A215A6AC
:1032100014A687EA93E093A782A717A60895CF93F1
:10322000DF931F92CDB7DEB76983DC01ED91FC918E
:103230000280F381E02D41E050E0BE016F5F7F4FDF
:1032400019950F90DF91CF910895CF93DF93EC0103
:10325000898D9A8D009739F481E090E09B838A8371
:1032600080E090E00BC0FC01138212820E94D51F07
:10327000E98DFA8D22813381232B71F7DF91CF9174
:103280000895FC01818D928D009711F00C946C1DB6
:103290000895CF93DF931F92CDB7DEB741E050E0A2
:1032A000BE016F5F7F4F0E94881B019719F48981CF
:1032B00090E002C08FEF9FEF0F90DF91CF910895C4
:1032C000FC01818D928D009711F00C9449198FEFBC
:1032D0009FEF08950F931F93CF93DF93FC01818D90
:1032E000928D0097B9F0EF010E9449198C010F3FB0
:1032F0008FEF180791F0898D9A8DFC0142855385D7
:103300006485758541505109610971090E94D61C77
:10331000C80105C080E090E002C08FEF9FEFDF9111
:10332000CF911F910F910895EF92FF920F931F93EA
:10333000CF93DF93EC017B018A011B821A8288EE16
:1033400093E0A0E0B0E08C839D83AE83BF8387E9E8
:1033500093E0998388838DE190E00E944E359A8FA7
:10336000898F009779F02DE1F701DC0101900D9232
:103370002A95E1F74CE050E0B801CE010C960E948E
:10338000C936188EDF91CF911F910F91FF90EF906A
:103390000895FC011382128288EE93E0A0E0B0E071
:1033A00084839583A683B78387E993E091838083A1
:1033B000128E118E148608950895FC01818D928DD0
:1033C000009711F00C94881B80E090E00895FC01B8
:1033D000818D928D009711F00C94D61C80E0089599
:1033E000DC015996ED91FC915A97309729F062854E
:1033F00073858485958508956FEF7FEFCB010895E0
:10340000DC015996ED91FC915A97309729F0638928
:10341000748985899689089560E070E0CB010895EC
:10342000CF92DF92EF92FF92CF93DF93FC01218D39
:10343000328D232BD9F0EC010E94001A6B017C0124
:10344000CE010E94F019A7019601261B370B480BED
:10345000590BDA01C901811530E89307A105B105BF
:1034600038F08FEF9FE7A0E0B0E002C080E090E08E
:10347000DF91CF91FF90EF90DF90CF900895CF93A1
:10348000DF93EC01898D9A8D009741F00E94B31D66
:10349000898D9A8D0E94E3351A8E198EDF91CF9116
:1034A0000895DC015996ED91FC915A97309721F0DF
:1034B00081E09581911101C080E00895CF93DF9361
:1034C000EC019C012A5F3F4F41E050E060E070E07A
:1034D0008B8D9C8D0E94A6268823A1F08F89988DC4
:1034E000A98DBA8D892B8A2B8B2B59F48E819F81C4
:1034F000A885B9858F8B988FA98FBA8F8C818068AA
:103500008C8381E0DF91CF910895CF92DF92EF928B
:10351000FF921F93CF93DF93EC010E945E1A8111FB
:1035200002C080E04AC0EB8DFC8DCE80DF80E88455
:10353000F98482E0C81AD108E108F108058404C0C2
:10354000CC0CDD1CEE1CFF1C0A94D2F786859785F7
:10355000A089B189C80ED91EEA1EFB1E148181E024
:10356000C81AD108E108F108112361F0C701B601BA
:10357000610F711D811D911D0E94F524882389F220
:103580001150F2CFEB8DFC8D80E092E0A0E0B0E036
:10359000058404C0880F991FAA1FBB1F0A94D2F785
:1035A0004B895C896D897E89840F951FA61FB71F83
:1035B0008B8B9C8BAD8BBE8B81E0DF91CF911F916C
:1035C000FF90EF90DF90CF900895CF93DF93EC01C1
:1035D000462F6E857F85888999890E94BA24882321
:1035E00041F08A8920E2829FC00111248953964FBD
:1035F00002C080E090E0DF91CF910895FB019B0134
:10360000255F3F4F40E24193E217F307E1F7DC010A
:1036100090E027E08D91882319F18E3219F0EAE1CC
:10362000F3E008C02A3009F198E02AE0F3CF3196A0
:103630003817D9F034913111FACF2917B0F03FED96
:10364000380F3E3590F431E0390FFB01E90FF11DE1
:103650009FE9980F9A3108F480528083932FDACF34
:1036600081E0FB019081903209F480E008950F938E
:103670001F93CF93DF93FC012581222311F080E07B
:1036800042C08B01EC01FB0187898031B1F482E0FB
:103690008D831F8A188E198E1A8E808D918DA0E0D1
:1036A000B0E025E0880F991FAA1FBB1F2A95D1F70C
:1036B0008B8B9C8BAD8BBE8B15C0803201F783E06A
:1036C0008D83FB01428D538D648D758D4F8B588F8B
:1036D000698F7A8F9E012D5E3F4FC8010E949D2504
:1036E000882369F21C8F0B8F81E08C831E821F82DE
:1036F000188619861A861B861C861D861E861F86BE
:10370000188A198A1A8ADF91CF911F910F91089513
:103710002F923F924F925F926F927F928F929F92E1
:10372000AF92BF92CF92DF92EF92FF920F931F93CF
:10373000CF93DF93EC015B014A018D81811103C0BE
:103740008FEF9FEFD7C08C8180FFFACF4B885C88CA
:103750006D887E884A855B856C857D85C401A0E087
:10376000B0E093018201041B150B260B370B0817E1
:1037700019072A073B0718F44201841A950A240105
:103780001E0126E0220E311C4114510409F47EC0B2
:103790004A855B856C857D856A0181E0D822ED8153
:1037A0008A019B0189E036952795179507958A959B
:1037B000D1F78B8D9C8DE23061F4FC01828D938D6D
:1037C000A48DB58DBC01CD01600F711F821F931FA9
:1037D0003FC0FC0174807A947022C114D104C9F4F2
:1037E000711017C0452B462B472B49F48F89988DB4
:1037F000A98DBA8D8E839F83A887B9870AC04E8111
:103800005F816885798591010E941925882309F4D3
:1038100097CFEB8DFC8D8E819F81A885B98502970E
:10382000A109B109058404C0880F991FAA1FBB1FF5
:103830000A94D2F74685578560897189840F951F50
:10384000A61FB71FBC01CD01670D711D811D911D04
:1038500020E032E02C193D0932012415350508F429
:1038600039012C8126FD04C06114F2E07F0679F550
:1038700000910F021091100220911102309112025A
:10388000601771078207930719F421C0C40132C081
:10389000750183019601AB01BC018091C50990912E
:1038A000C6090E94DD23882309F44ACFA60CB71C61
:1038B0008A859B85AC85BD85860D971DA11DB11D93
:1038C0008A879B87AC87BD87461857085DCF40E045
:1038D0000E94BA24882309F433CFF601E953F64F46
:1038E000D501CF01860D971DE817F907F9F221914F
:1038F0002D93FACFDF91CF911F910F91FF90EF9011
:10390000DF90CF90BF90AF909F908F907F906F90FF
:103910005F904F903F902F900895FF920F931F93C9
:10392000CF93DF931F92CDB7DEB7FC012581223004
:1039300018F480E090E033C08C01FC01428553858F
:103940006485758585E076956795579547958A9541
:10395000D1F7F42FFF70FF2E41E050E0BE016F5F02
:103960007F4FC8010E94881B019719F4898190E05C
:1039700002C08FEF9FEF0196E1F2F80182859385F7
:10398000A485B5854F96A11DB11D82879387A48715
:10399000B587F0E2FF9EC00111248953964F0F9026
:1039A000DF91CF911F910F91FF9008958F929F9279
:1039B000AF92BF92CF92DF92EF92FF920F931F933D
:1039C000CF93DF93EC018D81811102C080E077C03D
:1039D0000B891C892D893E8904171507260737078F
:1039E000A8F36A017B01823029F4CA86DB86EC8663
:1039F000FD860DC0C114D104E104F10451F41E820E
:103A00001F82188619861A861B861C861D8681E0F1
:103A100056C08A849B84AC84BD84EB8DFC8D258547
:103A200030E0275F3F4FB501A401415051096109C2
:103A30007109022E04C076956795579547950A94AB
:103A4000D2F7D701C6010197A109B10904C0B69503
:103A5000A795979587952A95D2F784179507A60776
:103A6000B70720F089288A288B2849F44F89588D78
:103A7000698D7A8D4E835F836887798704C0841B44
:103A8000950BA60BB70B4C015D018E010A5F1F4F12
:103A900081149104A104B10409F4A7CF4E815F8180
:103AA0006885798598018B8D9C8D0E94192591E000
:103AB000891A9108A108B1088111EACF87CFDF9157
:103AC000CF911F910F91FF90EF90DF90CF90BF901B
:103AD000AF909F908F9008950F931F93CF93DF9394
:103AE000EC018D818823C9F18C8187FF30C061E0B2
:103AF000CE010E94E51A8C01892B79F18D818230EB
:103B000048F48B899C89AD89BE89F801848F958F93
:103B1000A68FB78F8F89988DA98DBA8DF801938F55
:103B2000828FB58BA48BE091BE09F091BF093097CD
:103B300059F0B8016A5E7F4FC80148961995F8019F
:103B4000808D918D938B828B8C818F778C83DF918D
:103B5000CF911F910F910C947F2480E0DF91CF9142
:103B60001F910F910895CF93DF93EC010E946C1D7C
:103B7000882311F01D8281E0DF91CF9108954F924B
:103B80005F926F927F928F929F92AF92BF92EF92CD
:103B9000FF920F931F93CF93DF9300D01F92CDB767
:103BA000DEB7FC0185818130E9F4848181FF1AC090
:103BB00083899489A589B68984179507A607B707CD
:103BC00088F0892B8A2B8B2B09F479C04A015B0181
:103BD0007F014284538464847584CF010E94D61C83
:103BE000811102C080E06CC0F701838D948D811437
:103BF0009104A104B10471F44789508D618D728DD7
:103C00000E94BB27882371F3F701178A108E118E4B
:103C1000128E3AC0F70146815781608571859E01F9
:103C20002F5F3F4F0E9419258823E1F249815A8175
:103C30006B817C81F701838D948DFC012789203174
:103C400029F008EF1FEF2FEF3FE004C008EF1FEF50
:103C500020E030E04017510762077307A8F40E9484
:103C6000BB27882309F4BECFF701468157816085C1
:103C700071850FEF1FEF2FEF3FE0838D948D0E9432
:103C80000626882309F4AECFF701838A948AA58A91
:103C9000B68A848180688483C7010E946C1D882352
:103CA00009F4A0CFB501A401481459046A047B04A7
:103CB00010F4B301A201C7010E94D61C01C081E02B
:103CC0000F900F900F900F90DF91CF911F910F9158
:103CD000FF90EF90BF90AF909F908F907F906F90EC
:103CE0005F904F9008951F93CF93DF93EC0180E294
:103CF000689FF00111249F012953364FD9011B966B
:103D00009C91917129F0842F827411F080E05BC046
:103D1000142F6A8B80910F0290911002A0911102D2
:103D2000B09112028E879F87A88BB98BE953F64F0B
:103D30004489558960E070E0BA01552744274F8BCC
:103D4000588F698F7A8F828D938DA0E0B0E0482BD9
:103D5000592B6A2B7B2B4F8B588F698F7A8FD90108
:103D60001B968C91887151F4848D958DA68DB78D9D
:103D70008B8B9C8BAD8BBE8B81E00DC0803131F67F
:103D80009E012D5E3F4F8B8D9C8D0E949D2588232B
:103D900009F4BCCF84E08D83812F8F708C831E82C9
:103DA0001F82188619861A861B861C861D8616FF9A
:103DB00009C040E050E0BA01CE01DF91CF911F91E0
:103DC0000C94BF1D81E0DF91CF911F910895CF9298
:103DD000DF92EF92FF920F931F93CF93DF93CDB7B4
:103DE000DEB72C970FB6F894DEBF0FBECDBFFC0137
:103DF00035813111C2C0D22E8B017C01BE016F5FB3
:103E00007F4FCA010E94FE1A882309F4B6C0F80148
:103E1000838D948DF701948F838FF801168217821A
:103E200010861186128613861486158630E0F801F6
:103E300082859385A485B58543895489658976896A
:103E400084179507A607B70708F041C025E0B69587
:103E5000A795979587952A95D1F7F82FFF70CF2EC4
:103E6000C8013C870E948D1C3C85009709F485C0E1
:103E7000FC012081222309F484C0253E99F04BE007
:103E800050E0BC01CE0101963C870E94B1363C85D2
:103E9000892B69F68D2D8073803309F46EC04D2D0A
:103EA0006C2D67C031116BC0F701C28A40910F02BF
:103EB000509110026091110270911202468757874B
:103EC000608B718BFC01808131E08111B0CF8D2D31
:103ED0008271823109F051C0332341F061E0C701A2
:103EE0000E94E51A8C01892B79F447C0F80185817D
:103EF000823009F442C0C8010E94851A8823E9F182
:103F0000F701128A07EC19E080E2F80111928A9514
:103F1000E9F78BE0FE013196D80101900D928A9568
:103F2000E1F7E091BE09F091BF09309739F0B8018F
:103F3000625F7F4FC8014096199509C081E298E2FF
:103F4000F801918B808B80E098E097878687F80155
:103F500080899189938B828B918F808F86859785BD
:103F6000978B868B0E947F24882339F04D2DF70193
:103F70006289C7010E94731E09C080E007C031E05A
:103F800056CF332309F490CF31E0A1CF2C960FB652
:103F9000F894DEBF0FBECDBFDF91CF911F910F917F
:103FA000FF90EF90DF90CF9008952F923F924F9225
:103FB0005F926F927F928F929F92AF92BF92CF92B9
:103FC000DF92EF92FF920F931F93CF93DF9300D076
:103FD0001F92CDB7DEB78C016B013A01DC0115965B
:103FE0008C9115978130C9F414968C9181FF15C07E
:103FF00082FF1DC0F80143895489658976898285CD
:104000009385A485B58584179507A607B70779F02A
:10401000C8010E94D61C81110AC081E090E0D8013D
:1040200013969C938E93129780E090E048C14301D1
:1040300084C0D8015B968D919C915C97FC01548063
:104040002FEF250D1A012B0139E056944794379430
:1040500027943A95D1F7522E52207A01F1E0FF22AF
:10406000552009F476C080E092E08E199F09540132
:104070008815990508F45C01D8015B962D913C9157
:104080005C9716968D919D910D90BC91A02D0297F5
:10409000A109B109F901058404C0880F991FAA1F5D
:1040A000BB1F0A94D2F74685578560897189840FB2
:1040B000951FA61FB71F9C01AD01250D311D411D88
:1040C000511D19012A01A11432E0B30609F088C07C
:1040D00080910F0290911002A0911102B0911202F2
:1040E00082159305A405B50559F48FEF9FEFDC0108
:1040F00080930F0290931002A0931102B0931202CA
:104100009601B201A1018091C5099091C6090E9452
:104110003124882309F481CF9EEFD91A8A189B088D
:10412000F80182859385A485B5858A0D9B1DA11D07
:10413000B11D82879387A487B587D8011A964D91C0
:104140005D916D917C911D978114910409F071CF5F
:1041500087C0E114F10409F086CF16964D915D9168
:104160006D917C911997411551056105710559F4BF
:1041700057968D919D910D90BC91A02D0097A10512
:10418000B10541F521C09E012F5F3F4F0E941925C7
:10419000882309F44ACF89819A81AB81BC81F801D7
:1041A000238D348DF9012789203129F048EF5FEF05
:1041B0006FEF7FE004C048EF5FEF60E070E08417CE
:1041C0009507A607B70730F0C8010E945E1A811153
:1041D0004ACF23CFF80186839783A087B18743CF47
:1041E000E114F10429F5D8011A964D915D916D9174
:1041F0007C911D9753968D919D910D90BC91A02D12
:10420000481759076A077B0798F00E947F24882384
:1042100009F403CF20920F02309210024092110253
:10422000509212028091C40981608093C40908C031
:1042300041E0C201B1010E94BA24882309F4EDCE05
:10424000D601F701E953F64FCF018A0D9B1DE81700
:10425000F90719F02D912193FACFCA0CDB1C5ECF20
:104260005396CD90DD90ED90FC90569714968C91DE
:10427000C416D506E606F70640F4F801438B548BC6
:10428000658B768B806884830DC02091BE09309148
:10429000BF09232B39F06114710421F08068D80123
:1042A00014968C93F801848183FD02C0C30107C07A
:1042B000C8010E946C1D882309F4AFCEF7CF0F9080
:1042C0000F900F900F90DF91CF911F910F91FF9062
:1042D000EF90DF90CF90BF90AF909F908F907F90A6
:1042E0006F905F904F903F902F900895CF93DF9302
:1042F0001F92CDB7DEB7698341E050E0BE016F5F2A
:104300007F4F0E94D51F0F90DF91CF9108958EBDF2
:104310000DB407FEFDCF08958FEF0E9487218EB563
:10432000089561E0FC0184810C949B1160E0FC0124
:1043300084810C949B11CF93DF93FC0186818823A9
:10434000D1F08FEF8EBD4FEF878190859C012F5F5D
:104350003F4F308727838130924028F40DB407FE09
:10436000FDCF4EBDF1CF0DB407FEFDCFEF01CF0164
:104370000E9491211E82DF91CF910895673028F02D
:1043800026E1FC01258380E008958DB560FD02C023
:10439000663011F48E7F01C081608DBD8CB58C7F3D
:1043A0008CBD9CB562FD02C080E001C082E06695D4
:1043B0006170692B862B8CBD81E008950F931F934C
:1043C000CF93DF93EB010E942F108B010E948C2171
:1043D0008F3F49F00E942F10601B710B6C177D07F7
:1043E000A8F380E001C081E0DF91CF911F910F9190
:1043F0000895CF92DF92FF920F931F93CF93DF9395
:1044000000D01F92CDB7DEB76C01F62E29833A8318
:104410004B835C830E949B21C6010E9496216CE223
:1044200071E0C6010E94DE218F2D80640E948721E9
:1044300008E110E05C814B813A812981DA01C901F0
:10444000002E04C0B695A795979587950A94D2F744
:1044500029833A834B835C830E948721085011098A
:1044600029813A814B815C81083F8FEF180731F732
:10447000FF2029F0E8E0FE1204C087E803C085E9C8
:1044800001C08FEF0E94872110E00E948C21F6016D
:10449000828787FF04C01F3F11F01F5FF6CF0F9088
:1044A0000F900F900F90DF91CF911F910F91FF9080
:1044B000DF90CF9008958F929F92AF92BF92EF922C
:1044C000FF920F931F93CF93DF93EC01E62E1B8691
:1044D00019861E821D824C830E942F108B0161E081
:1044E0008C810E945F11CE010E94912160E082E3E5
:1044F0000E945F1161E083E30E945F1161E084E349
:104500000E945F1161E085E30E945F1161E085E335
:104510000E949B1183E58CBD8DB58E7F8DBD2AE0F9
:10452000F22E8FEF0E948721FA94F110FACFCE017C
:104530000E94962120E030E0A90160E0CE010E94B7
:10454000F921F82E8A8781E0F81649F00E942F1091
:10455000601B710B613D774068F381E04CC02AEA33
:1045600031E040E050E068E0CE010E94F92182FF96
:1045700002C0FB860EC094E0F92E0E948C218A872F
:10458000FA94F110FACF8A3A11F082E034C082E056
:104590008B878B85823021F0812C912C540105C0B2
:1045A000812C912CA12C80E4B82E20E030E0A901D0
:1045B00067E3CE010E94F921A501940169E2CE01D1
:1045C0000E94F9218A87882349F00E942F10601BDE
:1045D000710B613D774048F388E00DC08B858230D8
:1045E00039F520E030E0A9016AE3CE010E94F9210B
:1045F000882389F086E08D83CE010E94912180E09E
:10460000DF91CF911F910F91FF90EF90BF90AF90EE
:104610009F908F9008950E948C21807C803C11F4A3
:1046200083E08B870E948C210E948C210E948C2128
:10463000CE010E9491216E2DCE01DF91CF911F916D
:104640000F91FF90EF90BF90AF909F908F900C9440
:10465000BE210F931F93CF93DF93EC010E942F1085
:104660008B010E948C218A878F3F49F40E942F1072
:10467000601B710B6D327140A0F38FE003C08E3F61
:1046800039F08DE08D83CE010E94912180E001C040
:1046900081E0DF91CF911F910F910895CF92DF922A
:1046A000EF92FF920F931F93CF93DF93EC01690179
:1046B000C801820F931F8130924008F06FC08E8135
:1046C000882371F088819981AA81BB814817590795
:1046D0006A077B0729F48F819885C816D90618F5D3
:1046E000488359836A837B838B85833039F089E0E3
:1046F000440F551F661F771F8A95D1F79A01AB01AA
:1047000061E1CE010E94F921882319F083E08D83B5
:1047100045C0CE010E942923882309F43FC0188692
:104720001F8281E08E838FEF8EBD2FEF8F81988562
:104730008C159D0550F40DB407FEFDCF2EBD8F8165
:104740009885019698878F83F1CFC8010197F7016B
:104750004FEF9F012E193F092817390738F40DB480
:1047600007FEFDCF2EB521934EBDF3CF0DB407FE4E
:10477000FDCF2EB5F701E80FF91F20838F819885B3
:10478000080F191F18870F838985882319F00115D1
:10479000124048F0CE010E949B2105C0CE010E942C
:1047A000912180E001C081E0DF91CF911F910F91B5
:1047B000FF90EF90DF90CF900895EF92FF920F93CC
:1047C0001F930115110519F00E944E2301C081E0CD
:1047D0001F910F91FF90EF900895EF92FF920F932A
:1047E0001F93790100E012E020E030E00E944E23A8
:1047F0001F910F91FF90EF900895CF93DF93EC01FD
:104800006EBD20E030E00DB407FEFDCFFA01E20FEF
:10481000F31F80818EBD0DB407FEFDCF81818EBD5B
:104820002E5F3F4F211582E0380769F70DB407FE70
:10483000FDCF8FEF0E9487218FEF0E9487210E947A
:104840008C218A87982F9F71953039F081E18D8373
:10485000CE010E94912180E001C081E0DF91CF91E3
:1048600008950F931F93CF93DF93EC0189014115B6
:1048700051056105710511F482E132C08B858330E9
:1048800039F089E0440F551F661F771F8A95D1F7CD
:104890009A01AB0168E1CE010E94F921882311F051
:1048A00084E01EC0A8016EEFCE010E94FD23882384
:1048B000C1F068E572E0CE010E94DE21811102C0E4
:1048C00085E10EC020E030E0A9016DE0CE010E943C
:1048D000F921811104C00E948C21882339F084E1E0
:1048E0008D83CE010E94912180E004C0CE010E9400
:1048F000912181E0DF91CF911F910F9108958091D7
:10490000C4098823A9F140910F02509110026091CF
:1049100011027091120227EC39E08091C509909143
:10492000C6090E943124811102C080E0089540919F
:10493000C0095091C1096091C2097091C309411524
:1049400051056105710591F027EC39E08091C509A9
:104950009091C6090E943124882339F31092C0092E
:104960001092C1091092C2091092C3091092C40991
:1049700081E00895CF92DF92EF92FF92CF936B0187
:104980007C01C42F80910F0290911002A09111021E
:10499000B09112028C159D05AE05BF05D1F00E94A5
:1049A0007F24811102C080E01AC027EC39E0B701F2
:1049B000A6018091C5099091C6090E94ED23882324
:1049C00091F3C0920F02D0921002E0921102F09285
:1049D00012028091C409C82BC093C40981E0CF9111
:1049E000FF90EF90DF90CF900895CF92DF92EF92FB
:1049F000FF926B017C010E947F248823A9F0E7ECE1
:104A0000F9E011928BE0E73CF807D9F7C0920F026A
:104A1000D0921002E0921102F09212028091C40929
:104A200081608093C40981E0FF90EF90DF90CF9088
:104A300008958F929F92AF92BF92CF92DF92EF92A2
:104A4000FF920F931F93CF93DF93FC018185928593
:104A5000A385B4850196A11DB11D84179507A607EE
:104A6000B70710F480E05CC083899489A589B68972
:104A7000C789C03129F4852E962EA72EBB2409C0E4
:104A80004A015B01C7E0B694A79497948794CA95AE
:104A9000D1F7E9016A017B018F01BC01CD01680DED
:104AA000791D8A1D9B1D80900F0290901002A0908E
:104AB0001102B0901202681579058A059B0599F4D8
:104AC000F80187898031A9F4B701A6015527662727
:104AD0007727440F551FFA01E953F64F80819181E2
:104AE000A0E0B0E018C040E00E94BA248111E8CFF5
:104AF000B9CFB701A6014F77552766277727440F0F
:104B0000551F440F551FFA01E953F64F80819181DB
:104B1000A281B381BF7088839983AA83BB8381E01C
:104B2000DF91CF911F910F91FF90EF90DF90CF9089
:104B3000BF90AF909F908F9008954F925F926F9229
:104B40007F92AF92BF92CF92DF92EF92FF920F933C
:104B50001F93CF93DF9300D01F92CDB7DEB78C01A8
:104B600049835A836B837C835901C12CD12C7601F4
:104B7000412C82E0582E612C712C49815A816B8125
:104B80007C819E012F5F3F4FC8010E941925882319
:104B900051F1D301C201F801058404C0880F991FA7
:104BA000AA1FBB1F0A94D2F7C80ED91EEA1EFB1E0D
:104BB00049815A816B817C818789803129F088EF16
:104BC0009FEFAFEFBFE004C088EF9FEFA0E0B0E041
:104BD000481759076A077B0780F2F501C082D18226
:104BE000E282F38281E00F900F900F900F90DF919F
:104BF000CF911F910F91FF90EF90DF90CF90BF90DA
:104C0000AF907F906F905F904F9008954F925F921A
:104C10006F927F928F929F92AF92BF92CF92DF92CC
:104C2000EF92FF920F931F93CF93DF93EC016A01F2
:104C30007B0128013901423051056105710510F4ED
:104C400080E073C089859A85AB85BC850196A11DDE
:104C5000B11D84179507A607B70790F38B889C882A
:104C6000AD88BE888F89803129F4BB27AF2D9E2D5A
:104C70008D2D09C0DB01CA0147E0B695A795979530
:104C800087954A95D1F7880E991EAA1EBB1E809162
:104C90000F0290911002A0911102B0911202881699
:104CA0009906AA06BB0679F48F898031A1F4DD2428
:104CB000EE24FF24C601880F991FFC01E953F64F2B
:104CC0005182408219C040E0C501B4010E94BA245B
:104CD0008111EACFB5CFE894C7F8DD24EE24FF2494
:104CE000C601880F991F880F991FFC01E953F64FE1
:104CF00040825182628273828091C4098160809374
:104D0000C4098A89823080F08D819E81AF81B88507
:104D1000880E991EAA1EBB1E8092C0099092C109DE
:104D2000A092C209B092C30981E0DF91CF911F9197
:104D30000F91FF90EF90DF90CF90BF90AF909F903A
:104D40008F907F906F905F904F9008952F923F9239
:104D50004F925F926F927F929F92AF92BF92CF924B
:104D6000DF92EF92FF920F931F93CF93DF93CDB714
:104D7000DEB760970FB6F894DEBF0FBECDBF5C0103
:104D800049875A876B877C871901D901CD90DD90BF
:104D9000ED90FC90C114D104E104F10431F0BFEFB7
:104DA000CB1ADB0AEB0AFB0A10C0FC01C080D180E1
:104DB000E280F3809924939409851A852B853C859C
:104DC000013011052105310509F0912CF50181858E
:104DD0009285A385B4858C019D010F5F1F4F2F4FD6
:104DE0003F4F0D871E872F87388B260137011D8285
:104DF0001E821F821886F50181859285A385B48560
:104E00000D811E812F813885081719072A073B0756
:104E100008F056C02D853E854F85588924153505E7
:104E20004605570550F482E0482E512C612C712C18
:104E300092E0C92ED12CE12CF12C9E012F5F3F4F27
:104E4000B301A201C5010E9419258823C9F1498136
:104E50005A816B817C81D301C2010196A11DB11DD4
:104E6000452B462B472B19F06C017D010FC0AC017F
:104E7000BD014C195D096E097F0909851A852B85CD
:104E80003C85401751076207730779F02D813E81F9
:104E90004F8158852F5F3F4F4F4F5F4F2D833E838C
:104EA0004F8358872C013D01A6CF0FEF1FEF2FEF47
:104EB0003FE0B301A201C5010E940626811118C07E
:104EC00080E041C0D301C2010197A109B1098D83DE
:104ED0009E83AF83B88793018201AC01BD01C501F8
:104EE0000E940626882361F34D805E806F8078845F
:104EF000C414D504E604F70428F3D1014D915D9163
:104F00006D917C91411551056105710599F4F1018F
:104F1000C082D182E282F3829920A1F0FFEFCF1A02
:104F2000DF0AEF0AFF0AD501CD92DD92ED92FC92E5
:104F3000139708C097018601C5010E9406268111BA
:104F4000E6CFBECF81E060960FB6F894DEBF0FBE0D
:104F5000CDBFDF91CF911F910F91FF90EF90DF9028
:104F6000CF90BF90AF909F907F906F905F904F9049
:104F70003F902F900895AF92BF92CF92DF92EF9221
:104F8000FF920F931F93CF93DF9300D01F92CDB763
:104F9000DEB75C016A017B0182E090E0A0E0B0E056
:104FA000F50180839183A283B3839E012F5F3F4FDE
:104FB000B701A601C5010E941925882311F100E05F
:104FC00010E09801B701A601C5010E9406268823BA
:104FD000C1F0C980DA80EB80FC80F50187898031DF
:104FE00029F088EF9FEFAFEFBFE004C088EF9FEF9D
:104FF000A0E0B0E0C816D906EA06FB06B0F281E0F0
:1050000001C080E00F900F900F900F90DF91CF9133
:105010001F910F91FF90EF90DF90CF90BF90AF90D6
:1050200008958F929F92AF92BF92CF92DF92EF92AC
:10503000FF920F931F93CF93DF93EC01142F709384
:10504000C6096093C509442369F1453010F080E03A
:10505000F2C040E060E070E0CB010E94BA248823F7
:10506000B1F320E1129FA00111244954564FFA01D7
:10507000E254FE4F80818F7751F73C968081918179
:10508000A281B38184369105A105B10500F334975F
:10509000C080D180E280F380C114D104E104F10426
:1050A00021F4D5CFC12CD12C760140E0C701B60147
:1050B0000E94BA24882359F28091D2099091D30991
:1050C0008115924021F69091D709992309F4BFCF19
:1050D0002091D5093091D609232B09F4B8CF8091BE
:1050E000D409882309F4B3CF9A8B8C831D8690E072
:1050F00061E070E02D85E22FAB01022E02C0440F6B
:10510000551F0A94E2F78417950731F031E0320F0A
:105110003D87283078F39BCF2091DD093091DE095F
:105120002115310519F040E050E008C02091EB094D
:105130003091EC094091ED095091EE092D833E83A9
:105140004F8358878091D5099091D6094601570120
:10515000880E991EA11CB11C8B8A9C8AAD8ABE8ABE
:105160000091D8091091D909198F088FA091D709FA
:10517000B0E00E946337860E971EA81EB91E8A8E65
:105180009B8EAC8EBD8E85E0000F111F8A95E1F7D6
:1051900001501E4F012F11270695800E911EA11C54
:1051A000B11C8E869F86A88AB98A2091DA0930912F
:1051B000DB092115310521F0A90160E070E008C08C
:1051C0004091E7095091E8096091E9097091EA0975
:1051D000D701C60188199909AA09BB09840F951F2F
:1051E000A61FB71F04C0B695A79597958795EA9512
:1051F000D2F789879A87AB87BC87853F2FE09207D4
:10520000A105B10510F48CE014C0853F9F4FA105A6
:10521000B10510F480E10DC08091F3099091F4097B
:10522000A091F509B091F6098A8F9B8FAC8FBD8F45
:1052300080E28F8B81E0DF91CF911F910F91FF90E2
:10524000EF90DF90CF90BF90AF909F908F90089598
:105250002F923F924F925F926F927F928F929F9286
:10526000AF92BF92CF92DF92EF92FF920F931F9374
:10527000CF93DF9300D0CDB7DEB74C017B836A8339
:105280006A01590117019801241B350B37FF03C030
:10529000319521953109C5014A815B81841B950BAC
:1052A00097FF03C091958195910951E05983821729
:1052B000930714F019820BC09A2D8B2D5801092FDA
:1052C000182F9A818B81DB82CA82C92ED82E8A81BF
:1052D0009B81A816B9065CF49C2D8D2D6801092FC1
:1052E000182F9A818B81BB82AA82A92EB82E250104
:1052F000AA81BB814A1A5B0A38016C187D0877FEC7
:1053000003C0719461947108720157FE03C0BFEF2E
:10531000EB1AFB0AF594E794C016D1061CF00FEFC8
:105320001FEF1FC001E010E01CC0D401ED91FC9103
:10533000B9810084F185E02D9101BB23C1F04A8140
:105340005B81B601C4011995E618F708F7FE04C0A1
:10535000C00ED11EE40CF51CEA81FB813196FB8363
:10536000EA834A815B81A416B506FCF604C0A60157
:105370006A817B81E7CF0F900F900F90DF91CF91E3
:105380001F910F91FF90EF90DF90CF90BF90AF9063
:105390009F908F907F906F905F904F903F902F9055
:1053A00008950895DC01ED91FC910480F581E02DD4
:1053B00019940F931F93DC01ED91FC91008CF18DFA
:1053C000E02D19951F910F9108950F931F93DC0104
:1053D000ED91FC91028CF38DE02D19951F910F91A9
:1053E0000895EF92FF920F931F93DC01ED91FC91D2
:1053F000048CF58DE02D19951F910F91FF90EF9082
:1054000008950895AF92BF92CF92DF92EF92FF92EC
:105410000F931F93CF93DF9300D01F92CDB7DEB7CA
:105420005C016901DC01ED91FC910680F781E02DC2
:105430004B835C8369837A831995D501ED91FC9147
:105440004B815C81C40ED51EB1E0CB1AD108008817
:10545000F189E02D7801860169817A819B01C5017E
:105460001995D501ED91FC910288F389E02DC501D4
:105470000F900F900F900F90DF91CF911F910F9190
:10548000FF90EF90DF90CF90BF90AF901994AF92C4
:10549000BF92CF92DF92EF92FF920F931F93CF9321
:1054A000DF9300D01F92CDB7DEB75C016901DC014C
:1054B000ED91FC910680F781E02D4B835C8369833D
:1054C0007A831995D501ED91FC9169817A819B01CF
:1054D0002C0D3D1D215031090088F189E02D780106
:1054E0004B815C818A01C5011995D501ED91FC9133
:1054F0000288F389E02DC5010F900F900F900F9057
:10550000DF91CF911F910F91FF90EF90DF90CF909F
:10551000BF90AF9019944F925F926F927F928F924B
:105520009F92AF92BF92CF92DF92EF92FF920F9332
:105530001F93CF93DF931F921F92CDB7DEB76C01FD
:105540005A0139014801DC01ED91FC910680F78197
:10555000E02D69837A8319956981462E7A81572EC9
:10556000640C751CD601ED91FC91461457046CF443
:105570000484F585E02D87019401A501B201C601DF
:105580001995BFEF4B1A5B0AEDCF0288F389E02D26
:10559000C6010F900F90DF91CF911F910F91FF9057
:1055A000EF90DF90CF90BF90AF909F908F907F90C3
:1055B0006F905F904F901994EF92FF920F931F930B
:1055C000DC01ED91FC9111971A960D911C911B979E
:1055D00018962D913C911997048CF58DE02D7B0147
:1055E00040E050E060E070E019951F910F91FF904E
:1055F000EF900895CF92DF92EF92FF920F931F9357
:10560000CF93DF9300D000D0CDB7DEB76C01DC01C3
:10561000ED91FC916217730789F4041715072CF4B8
:10562000942F852FA801092F182F041B150B980103
:105630002F5F3F4F008CF18DE02D12C040175107B6
:1056400009F5261737072CF4962F872FB901292F34
:10565000382F261B370B2F5F3F4F028CF38DE02D29
:105660008701C601199526960FB6F894DEBF0FBEC6
:10567000CDBFDF91CF911F910F91FF90EF90DF9001
:10568000CF9008950680F781E02D2D833E834B83D4
:105690005C8369837A831995D601ED91FC9100882A
:1056A000F189E02D2D813E814B815C8169817A8178
:1056B000C6011995D601ED91FC910288F389E02D80
:1056C000C60126960FB6F894DEBF0FBECDBFDF91A0
:1056D000CF911F910F91FF90EF90DF90CF90199491
:1056E0006F927F928F929F92AF92BF92CF92DF92F2
:1056F000EF92FF920F931F93CF93DF93EC014B0137
:105700005A0169013801E881F9810680F781E02DAD
:105710001995E881F9810684F785E02D87019601C6
:10572000A501B401CE011995E881F981A501460DC5
:10573000571D415051090684F785E02D9601B401AB
:10574000CE011995E881F9810484F585E02D930156
:10575000A501B401CE011995E881F981C80CD91CC5
:10576000B601615071090484F585E02D9301A5010E
:10577000CE011995E881F9810288F389E02DCE01E7
:10578000DF91CF911F910F91FF90EF90DF90CF901D
:10579000BF90AF909F908F907F906F9019940895D5
:1057A000FC016370658B848195812681378161302E
:1057B00039F0633029F091878087338722870895F5
:1057C00031872087938782870895FC011382128294
:1057D0008FEA93E091838083758364835783468344
:1057E0007187608753874287158A158614861786C6
:1057F000168681E0848B2FEF3FEF338B228B318B2A
:10580000208B868B178A118E108E08952F923F92CF
:105810004F925F926F927F928F929F92AF92BF92C0
:10582000CF92DF92EF92FF920F931F93CF93DF936C
:10583000CDB7DEB76C970FB6F894DEBF0FBECDBF05
:105840009C8F8B8F5B011A011F830E833701C982E6
:10585000DC0158964D915C9159974115510509F01D
:10586000E5C018968D919C911997681779070CF0EF
:10587000CAC11A968D919C911B97281639060CF077
:10588000C2C18C2C912CFB0136E0C39EE00DF11DB2
:105890001124FB87EA871E161F060CF0B4C1C40151
:1058A00033E0880F991F3A95E1F79D878C87820D29
:1058B000931D181619060CF0A6C157968C918111EC
:1058C00003C0203B08F02F5FAB8DBC8DED91FC91A8
:1058D00011970680F781E02DCD012A8F19952A8D29
:1058E000B5E02B9F90011124F5013596FF87EE87D7
:1058F0002501BB82AA82A9014A195B09598B488BF1
:10590000C10108969B8B8A8BE889F989E40DF51D06
:10591000E65DFC4F949198873D822C826101A885B9
:10592000A0FF13C0AB8DBC8DED91FC91B981B1305E
:1059300031F40084F185E02D2E813F8116C0028470
:10594000F385E02DEE80FF801AC0EE81FF816E1698
:105950007F06F1F0AB8DBC8DED91FC91B981B1303A
:1059600051F40084F185E02D9301A601B2018B8DE5
:105970009C8D19950DC00284F385E02D730184017F
:1059800094014C815D816A817B818B8D9C8D199501
:10599000E885E695E8872C813D81280D391D3D83FA
:1059A0002C833FEFC31AD30A4A895B89C416D506F4
:1059B00009F0B5CF8A819B81880D991D9B838A83CD
:1059C0009FEF491A590AAE85BF854A165B0609F052
:1059D0009BCFEE81FF816E167F0609F4F2C0EB8D3E
:1059E000FC8DA081B181F981F13079F4B5016B5F53
:1059F0007F4F1C96ED91FC911D97830128E030E0CC
:105A0000A1018B8D9C8D1995DCC06A857B856819F9
:105A100079091A96ED91FC911B9773010C851D85F0
:105A20009401A1018B8D9C8D1995CBC0FA01349600
:105A30009491329765917491291BCB01B7E02B9F0C
:105A4000800D911D1124FA01259134913B8B2A8BF5
:105A5000FC01459154915B834A83FC013296C490CA
:105A6000319654915C87329614913196D490898105
:105A7000823058F0612E012E000C7708AD2D0D2CD0
:105A8000000CBB0BB987A88704C019861886612C47
:105A9000712CAB8DBC8DED91FC9111970680F78137
:105AA000E02DCD011995B9818B2E912C689CC001F8
:105AB000699C900D789C900D1124FC01EA0DFB1D52
:105AC000F98BE88B1C82712C612CE12F110FFF0BDD
:105AD00095012E0F3F1F3B872A87AC0CB11CA501F7
